:100000000C942A000C9447000C9447000C94470071
:100010000C9447000C9447000C9447000C949E1ECF
:100020000C9447000C9447000C94EC070C94BF0709
:100030000C9447000C9447000C9447000C94470024
:100040000C94CE0C0C9447000C9447000C94470081
:100050000C94470011241FBECFE5D8E0DEBFCDBF12
:1000600011E0A0E6B0E0E6EAF3E602C005900D92EA
:10007000A83DB107D9F717E0A8EDB1E001C01D9286
:10008000A935B107E1F70E94162C0C94D1310C94DC
:100090000000EF92FF920F931F937B018C0120E0F1
:1000A00030E040E05FE40E94F50388238CF0C80153
:1000B000B70120E030E040E05FE40E94C1010E940F
:1000C00085049B01AC01205030404040504806C0A0
:1000D000C801B7010E9485049B01AC01B901CA01A6
:1000E0001F910F91FF90EF900895A0E0B0E0EBE733
:1000F000F0E00C940931DC012B01FA019C91923063
:1001000008F439C1EB018881823008F433C194309E
:1001100069F4843009F02FC111969C91119789815F
:10012000981709F428C1AAEBB0E025C1843009F47E
:1001300021C18230A9F4923009F01DC19A01AD01AC
:1001400088E0EA010990AE01E90109929E0181501F
:10015000C1F7E201898111969C918923818308C1AD
:10016000923009F407C112962D903C901397EB0141
:100170008A819B811496AD90BD90CD90DC901797AD
:10018000EC80FD800E811F819101281B390BB90184
:1001900037FF04C066277727621B730B6032710537
:1001A0000CF061C0121613066CF537014801062EDB
:1001B00004C096948794779467940A94D2F721E0C8
:1001C00030E040E050E004C0220F331F441F551FB1
:1001D0006A95D2F721503040404050402E213F21B7
:1001E00040235123211531054105510521F021E01E
:1001F00030E040E050E079018A01E628F72808293C
:1002000019293CC0232BD1F1260E371E350146019A
:10021000062E04C096948794779467940A94D2F734
:1002200021E030E040E050E004C0220F331F441FC3
:10023000551F6A95D2F721503040404050402A2146
:100240003B214C215D21211531054105510521F04E
:1002500021E030E040E050E059016A01A628B728CB
:10026000C828D9280BC0821593052CF01C01AA249C
:10027000BB24650103C0EE24FF24870111969C91E5
:10028000D20111968C91981709F445C0992339F041
:10029000A80197012A193B094C095D0906C0A6016E
:1002A00095012E193F09400B510B57FD08C01182D3
:1002B0003382228224833583468357831DC081E0A5
:1002C00081833382228288279927DC01821B930B4A
:1002D000A40BB50B84839583A683B7830DC0220F2F
:1002E000331F441F551F24833583468357838281E0
:1002F000938101979383828324813581468157813D
:10030000DA01C9010197A109B1098F5F9F4FAF4F72
:10031000BF4328F30BC0918333822282EA0CFB1C7B
:100320000C1D1D1DE482F5820683178383E0808304
:10033000248135814681578157FF1AC0C901AA27F8
:1003400097FDA095BA2F81709070A070B0705695EF
:10035000479537952795822B932BA42BB52B848318
:100360009583A683B7838281938101969383828349
:10037000DF0101C0D201CD01CDB7DEB7E2E10C94BF
:100380002531A0E2B0E0E7ECF1E00C94153169838F
:100390007A838B839C832D833E834F835887E9E048
:1003A000EE2EF12CEC0EFD1ECE010196B7010E943F
:1003B00076068E010F5E1F4FCE010596B8010E9492
:1003C00076068A8991E089278A8BC701B801AE0138
:1003D000475E5F4F0E9475000E94A105A096E6E06F
:1003E0000C943131A0E2B0E0E8EFF1E00C9415316B
:1003F00069837A838B839C832D833E834F835887C5
:10040000F9E0EF2EF12CEC0EFD1ECE010196B701A6
:100410000E9476068E010F5E1F4FCE010596B80131
:100420000E947606C701B801AE01475E5F4F0E9489
:1004300075000E94A105A096E6E00C943131A0E27F
:10044000B0E0E5E2F2E00C94093169837A838B83B2
:100450009C832D833E834F835887CE010196BE0136
:10046000675F7F4F0E947606CE010596BE016F5EE4
:100470007F4F0E9476069985923088F08989823074
:10048000C8F0943019F4823051F404C0843029F457
:10049000923081F48AEB90E0C6C0923049F420E0BB
:1004A0009A858A89981321E02A87CE010996BBC0D4
:1004B000823049F420E09A858A89981321E02A8BBA
:1004C000CE014196B0C02D843E844F8458886D88FB
:1004D0007E888F88988CEE24FF248701AA24BB2471
:1004E000650140E050E060E070E0E0E0F0E0C10174
:1004F00081709070892BE9F0E60CF71C081D191D1E
:100500009A01AB012A0D3B1D4C1D5D1D80E090E062
:10051000A0E0B0E0E614F7040805190520F481E036
:1005200090E0A0E0B0E0BA01A901480F591F6A1F8E
:100530007B1FAA0CBB1CCC1CDD1C97FE08C081E0F5
:1005400090E0A0E0B0E0A82AB92ACA2ADB2A3196B6
:10055000E032F10549F0660C771C881C991C569412
:10056000479437942794C3CFFA85EA892B893C892D
:100570008B859C85280F391F2E5F3F4F17C0CA01FE
:1005800081709070892B61F016950795F794E79428
:1005900080E090E0A0E0B0E8E82AF92A0A2B1B2BC3
:1005A00076956795579547952F5F3F4F77FDE7CF36
:1005B0000CC0440F551F661F771F17FD4160EE0CDE
:1005C000FF1C001F111F21503040403090E05907A0
:1005D00090E0690790E4790760F32B8F3C8FDB0193
:1005E000CA018F779070A070B07080349105A1051A
:1005F000B10561F447FD0AC0E114F10401051105DC
:1006000029F0405C5F4F6F4F7F4F40781A8EFE1786
:1006100011F081E08A8F4D8F5E8F6F8F78A383E01A
:10062000898FCE0149960E94A105A096E2E10C9423
:100630002531A8E1B0E0EFE1F3E00C9411316983DA
:100640007A838B839C832D833E834F835887B9E0C5
:10065000EB2EF12CEC0EFD1ECE010196B7010E948F
:1006600076068E010F5E1F4FCE010596B8010E94DF
:1006700076062985223008F47EC03989323010F49C
:10068000B8017CC08A859A8989278A87243011F02D
:10069000223031F4231709F06EC06AEB70E06EC0AF
:1006A000343039F41D861E861F86188A1C861B86E8
:1006B00004C0323021F484E08987B7015FC02B8504
:1006C0003C858B899C89281B390B3C872B87ED84C3
:1006D000FE840F851889AD88BE88CF88D88CEA142F
:1006E000FB040C051D0540F4EE0CFF1C001F111F40
:1006F000215030403C872B8720E030E040E050E044
:1007000080E090E0A0E0B0E460E070E0EA14FB0478
:100710000C051D0540F0282B392B4A2B5B2BEA18C2
:10072000FB080C091D09B695A79597958795EE0CC2
:10073000FF1C001F111F6F5F7F4F6F31710531F775
:10074000DA01C9018F779070A070B0708034910584
:10075000A105B10561F427FD0AC0E114F10401050A
:10076000110529F0205C3F4F4F4F5F4F20782D87B8
:100770003E874F87588BBE01675F7F4FCB010E943A
:10078000A1056896EAE00C942D31A8E1B0E0EBEC0D
:10079000F3E00C94153169837A838B839C832D83DA
:1007A0003E834F83588789E0E82EF12CEC0EFD1E26
:1007B000CE010196B7010E9476068E010F5E1F4F93
:1007C000CE010596B8010E9476068985823040F0F8
:1007D0008989823028F0C701B8010E94EE0601C065
:1007E0008FEF6896E6E00C943131A8E1B0E0EBEFD2
:1007F000F3E00C94153169837A838B839C832D837A
:100800003E834F83588789E0E82EF12CEC0EFD1EC5
:10081000CE010196B7010E9476068E010F5E1F4F32
:10082000CE010596B8010E9476068985823040F097
:100830008989823028F0C701B8010E94EE0601C004
:100840008FEF6896E6E00C943131A8E1B0E0EBE27E
:10085000F4E00C94153169837A838B839C832D8318
:100860003E834F83588789E0E82EF12CEC0EFD1E65
:10087000CE010196B7010E9476068E010F5E1F4FD2
:10088000CE010596B8010E9476068985823040F037
:100890008989823028F0C701B8010E94EE0601C0A4
:1008A00081E06896E6E00C943131A8E1B0E0EBE538
:1008B000F4E00C94153169837A838B839C832D83B8
:1008C0003E834F83588789E0E82EF12CEC0EFD1E05
:1008D000CE010196B7010E9476068E010F5E1F4F72
:1008E000CE010596B8010E9476068985823040F0D7
:1008F0008989823028F0C701B8010E94EE0601C044
:1009000081E06896E6E00C943131ACE0B0E0EBE8D1
:10091000F4E00C94193169837A838B839C83CE0134
:100920000196BE016B5F7F4F0E9476068D818230FB
:1009300061F1823050F1843021F48E81882351F1AD
:100940002EC02F81388537FD20C06E812F313105B3
:100950001CF06623F9F023C08EE190E0821B930B1C
:1009600029853A854B855C8504C056954795379512
:1009700027958A95D2F76623B1F05095409530952A
:1009800021953F4F4F4F5F4F0EC020E030E040E0D9
:1009900050E009C02FEF3FEF4FEF5FE704C020E0CA
:1009A00030E040E050E8B901CA012C96E2E00C9436
:1009B0003531A8E0B0E0EFEDF4E00C9411317B01AB
:1009C0008C01611571058105910519F482E0898317
:1009D00060C083E089838EE1C82ED12CDC82CB827B
:1009E000ED82FE820F831887C801B7010E9452056D
:1009F000FC013197F7FF3BC0222733272E1B3F0B0B
:100A000057016801022E04C0D694C794B794A794E6
:100A10000A94D2F740E050E060E070E081E090E0BE
:100A2000A0E0B0E004C0880F991FAA1FBB1F2A9541
:100A3000D2F70197A109B1098E219F21A023B123EB
:100A40000097A105B10521F041E050E060E070E0C1
:100A50004A295B296C297D294D835E836F837887C2
:100A60008EE190E08E1B9F0B9C838B8312C030978E
:100A700081F00E2E04C0EE0CFF1C001F111F0A9403
:100A8000D2F7ED82FE820F831887CE1ADF0ADC824E
:100A9000CB821A82CE0101960E94A1052896EAE037
:100AA0000C942D31EF92FF920F931F937B018C01D9
:100AB00080E0E81680E0F80681E0080780E018078B
:100AC00088F48FEFE816F1040105110531F028F0E4
:100AD00088E090E0A0E0B0E017C080E090E0A0E007
:100AE000B0E012C080E0E81680E0F80680E0080779
:100AF00081E0180728F088E190E0A0E0B0E004C0B1
:100B000080E190E0A0E0B0E020E230E040E050E0A2
:100B1000281B390B4A0B5B0B04C016950795F794FD
:100B2000E7948A95D2F7F701EE53FF4F8081281B97
:100B3000310941095109C9011F910F91FF90EF90AF
:100B40000895DF92EF92FF920F931F93FC01E480D0
:100B5000F58006811781D1808081823048F480E061
:100B600090E0A0E1B0E0E82AF92A0A2B1B2BA5C0EF
:100B7000843009F49FC0823021F4EE24FF248701E1
:100B800005C0E114F1040105110519F4E0E0F0E0FD
:100B900096C0628173819FEF623879070CF05BC069
:100BA00022E83FEF261B370B2A3131052CF020E0DD
:100BB00030E040E050E02AC0B801A701022E04C096
:100BC00076956795579547950A94D2F781E090E01E
:100BD000A0E0B0E004C0880F991FAA1FBB1F2A9590
:100BE000D2F70197A109B1098E219F21A023B1233A
:100BF0000097A105B10521F081E090E0A0E0B0E010
:100C00009A01AB01282B392B4A2B5B2BDA01C90146
:100C10008F779070A070B07080349105A105B105F8
:100C200039F427FF09C0205C3F4F4F4F5F4F04C08E
:100C3000215C3F4F4F4F5F4FE0E0F0E02030A0E0FD
:100C40003A07A0E04A07A0E45A0710F0E1E0F0E01C
:100C500079018A0127C06038710564F5FB01E1580C
:100C6000FF4FD801C7018F779070A070B0708034AB
:100C70009105A105B10539F4E7FE0DC080E490E0CF
:100C8000A0E0B0E004C08FE390E0A0E0B0E0E80EA8
:100C9000F91E0A1F1B1F17FF05C016950795F7942D
:100CA000E794319687E016950795F794E7948A952F
:100CB000D1F705C0EE24FF248701EFEFF0E06E2F9F
:100CC000679566276795902F9F77D794DD24D794F3
:100CD0008E2F8695492F462B582F5D29B701CA01C3
:100CE0001F910F91FF90EF90DF900895FC01DB01C1
:100CF000408151812281622F6F7770E0221F22276D
:100D0000221F9381892F880F822B282F30E0991F73
:100D10009927991F11969C93119721153105A9F5D3
:100D2000411551056105710511F482E037C082E873
:100D30009FEF13969C938E9312979A01AB0167E0F5
:100D4000220F331F441F551F6A95D1F783E08C9300
:100D50000DC0220F331F441F551F12968D919C9179
:100D60001397019713969C938E931297203080E0EF
:100D7000380780E0480780E4580758F314962D930D
:100D80003D934D935C93179708952F3F310579F468
:100D9000411551056105710519F484E08C9308959E
:100DA00064FF03C081E08C9312C01C9210C02F57C7
:100DB000304013963C932E93129783E08C9387E0F8
:100DC000440F551F661F771F8A95D1F770641496DC
:100DD0004D935D936D937C93179708951F93DC015A
:100DE000FB019C91923008F447C08081823008F466
:100DF00043C0943051F411961C91843099F581814F
:100E0000682F70E0611B71093FC0843021F092307F
:100E100031F48230B9F18181882389F12DC0119696
:100E20001C9111978230F1F081811817D9F4129634
:100E30002D913C911397828193818217930794F0AF
:100E400028173907BCF014968D919D910D90BC9197
:100E5000A02D2481358146815781281739074A07FB
:100E60005B0718F4112341F00AC082179307A40707
:100E7000B50740F4112319F061E070E005C06FEF91
:100E80007FEF02C060E070E0CB011F910895DF9317
:100E9000CF93CDB7DEB7A3E5B0E0E3E5F0E0808126
:100EA000887F8C93A3E5B0E0E3E5F0E08081846087
:100EB0008C93A3E5B0E0E3E5F0E080818F7B8C9339
:100EC000A3E5B0E0E3E5F0E0808188608C93A9E5DC
:100ED000B0E0E9E5F0E0808182608C93A3E5B0E0CA
:100EE000E3E5F0E080818F7D8C93A3E5B0E0E3E55E
:100EF000F0E080818F7E8C93CF91DF910895DF9316
:100F0000CF930F92CDB7DEB78983E2E5F0E0898118
:100F100080830F90CF91DF910895DF93CF930F924D
:100F2000CDB7DEB78983ECE5F0E0898180830F904F
:100F3000CF91DF910895DF93CF9300D0CDB7DEB787
:100F40009A83898389819A81909356078093550764
:100F50000F900F90CF91DF910895DF93CF9300D042
:100F6000CDB7DEB79A83898389819A81909356079A
:100F7000809355070F900F90CF91DF9108951F92A6
:100F80000F920FB60F9211242F933F934F935F93BD
:100F90006F937F938F939F93AF93BF93EF93FF9341
:100FA000DF93CF93CDB7DEB7E0915507F0915607A9
:100FB0000995CF91DF91FF91EF91BF91AF919F91F3
:100FC0008F917F916F915F914F913F912F910F90F2
:100FD0000FBE0F901F9018951F920F920FB60F9291
:100FE00011242F933F934F935F936F937F938F932E
:100FF0009F93AF93BF93EF93FF93DF93CF93CDB7BF
:10100000DEB7E0915507F09156070995CF91DF9132
:10101000FF91EF91BF91AF919F918F917F916F91D0
:101020005F914F913F912F910F900FBE0F901F90A6
:101030001895DF93CF93CDB7DEB7AFE5B0E0EFE51E
:10104000F0E0808180688C93CF91DF910895DF93E9
:10105000CF93CDB7DEB7AFE5B0E0EFE5F0E080814C
:101060008F778C93CF91DF910895DF93CF9300D04A
:1010700000D000D0CDB7DEB78A836B834C8381E08C
:1010800089838A81883008F0E8C08B81282F30E07E
:101090003E832D838D819E818130910509F448C066
:1010A0002D813E81223031052CF48D819E81009767
:1010B00071F0D1C02D813E812230310509F469C023
:1010C0008D819E818330910509F494C0C4C08C81C8
:1010D0008130A1F4AAE3B0E0EAE3F0E08081482F98
:1010E0008A81282F30E081E090E0022E02C0880F34
:1010F000991F0A94E2F7842B8C93B0C08C818823CB
:10110000A9F4AAE3B0E0EAE3F0E08081482F8A8105
:10111000282F30E081E090E0022E02C0880F991F56
:101120000A94E2F7809584238C9398C0198296C024
:101130008C818130A1F4A7E3B0E0E7E3F0E08081A7
:10114000482F8A81282F30E081E090E0022E02C0F3
:10115000880F991F0A94E2F7842B8C937FC08C81AF
:101160008823A9F4A7E3B0E0E7E3F0E08081482F0B
:101170008A81282F30E081E090E0022E02C0880FA3
:10118000991F0A94E2F7809584238C9367C0198293
:1011900065C08C818130A1F4A4E3B0E0E4E3F0E029
:1011A0008081482F8A81282F30E081E090E0022E54
:1011B00002C0880F991F0A94E2F7842B8C934EC0CB
:1011C0008C818823A9F4A4E3B0E0E4E3F0E080811B
:1011D000482F8A81282F30E081E090E0022E02C063
:1011E000880F991F0A94E2F7809584238C9336C068
:1011F000198234C08C818130A1F4A1E3B0E0E1E335
:10120000F0E08081482F8A81282F30E081E090E053
:10121000022E02C0880F991F0A94E2F7842B8C9348
:101220001DC08C818823A9F4A1E3B0E0E1E3F0E0E4
:101230008081482F8A81282F30E081E090E0022EC3
:1012400002C0880F991F0A94E2F7809584238C933B
:1012500005C0198203C0198201C0198289812696AE
:101260000FB6F894DEBF0FBECDBFCF91DF910895CA
:10127000DF93CF9300D000D00F92CDB7DEB78A8333
:101280006B8381E089838B818F3F19F08B81882369
:10129000A9F58A81282F30E03D832C838C819D81A4
:1012A00081309105D1F02C813D81223031052CF423
:1012B0008C819D81009761F01FC02C813D8122307F
:1012C000310581F08C819D818330910581F014C0BE
:1012D000EAE3F0E08B81808312C0E7E3F0E08B81EA
:1012E00080830DC0E4E3F0E08B81808308C0E1E3FC
:1012F000F0E08B81808303C0198201C0198289814B
:101300000F900F900F900F900F90CF91DF91089555
:10131000DF93CF9300D000D000D0CDB7DEB78A8363
:101320006B834C8381E089838A81883008F0E8C030
:101330008B81282F30E03E832D838D819E818130EB
:10134000910509F448C02D813E81223031052CF4ED
:101350008D819E81009771F0D1C02D813E81223018
:10136000310509F469C08D819E818330910509F4AE
:1013700094C0C4C08C818130A1F4ABE3B0E0EBE356
:10138000F0E08081482F8A81282F30E081E090E0D2
:10139000022E02C0880F991F0A94E2F7842B8C93C7
:1013A000B0C08C818823A9F4ABE3B0E0EBE3F0E0BC
:1013B0008081482F8A81282F30E081E090E0022E42
:1013C00002C0880F991F0A94E2F7809584238C93BA
:1013D00098C0198296C08C818130A1F4A8E3B0E056
:1013E000E8E3F0E08081482F8A81282F30E081E017
:1013F00090E0022E02C0880F991F0A94E2F7842B16
:101400008C937FC08C818823A9F4A8E3B0E0E8E343
:10141000F0E08081482F8A81282F30E081E090E041
:10142000022E02C0880F991F0A94E2F78095842348
:101430008C9367C0198265C08C818130A1F4A5E3CB
:10144000B0E0E5E3F0E08081482F8A81282F30E08A
:1014500081E090E0022E02C0880F991F0A94E2F703
:10146000842B8C934EC08C818823A9F4A5E3B0E033
:10147000E5E3F0E08081482F8A81282F30E081E089
:1014800090E0022E02C0880F991F0A94E2F780951F
:1014900084238C9336C0198234C08C818130A1F4AE
:1014A000A2E3B0E0E2E3F0E08081482F8A81282FB8
:1014B00030E081E090E0022E02C0880F991F0A946C
:1014C000E2F7842B8C931DC08C818823A9F4A2E3BE
:1014D000B0E0E2E3F0E08081482F8A81282F30E0FD
:1014E00081E090E0022E02C0880F991F0A94E2F773
:1014F000809584238C9305C0198203C0198201C092
:101500001982898126960FB6F894DEBF0FBECDBF33
:10151000CF91DF910895DF93CF9300D000D00F9249
:10152000CDB7DEB78A836B8381E089838A81282FD8
:1015300030E03D832C838C819D8181309105D1F0F9
:101540002C813D81223031052CF48C819D810097C6
:1015500061F01FC02C813D812230310581F08C81EA
:101560009D818330910581F014C0EBE3F0E08B8125
:10157000808310C0E8E3F0E08B8180830BC0E5E35B
:10158000F0E08B81808306C0E2E3F0E08B81808312
:1015900001C0198289810F900F900F900F900F90CA
:1015A000CF91DF910895DF93CF93CDB7DEB7279723
:1015B0000FB6F894DEBF0FBECDBF8A836B835D8309
:1015C0004C8381E089838A81883008F079C08C81DE
:1015D0009D818130910509F473C08B81282F30E003
:1015E0003F832E834E815F814130510559F18E81B9
:1015F0009F818230910534F42E813F812115310580
:1016000069F05CC04E815F814230510579F18E8175
:101610009F818330910509F43DC050C0E9E3F0E0BB
:101620008081282F30E08A81882F90E0A90102C0B4
:10163000559547958A95E2F7CA018170EC81FD8145
:1016400080833FC0E6E3F0E08081282F30E08A818C
:10165000882F90E0A90102C0559547958A95E2F739
:10166000CA018170EC81FD8180832BC0E3E3F0E04F
:101670008081282F30E08A81882F90E0A90102C064
:10168000559547958A95E2F7CA018170EC81FD81F5
:10169000808317C0E0E3F0E08081282F30E08A816A
:1016A000882F90E0A90102C0559547958A95E2F7E9
:1016B000CA018170EC81FD81808303C0198201C061
:1016C0001982898127960FB6F894DEBF0FBECDBF71
:1016D000CF91DF910895DF93CF9300D000D000D059
:1016E000CDB7DEB78A836B834C8381E089838A819F
:1016F000853008F097C08B81282F30E03E832D8302
:101700008D819E8181309105A1F12D813E81223014
:1017100031052CF48D819E81009771F081C02D815F
:101720003E812230310509F441C08D819E81833094
:10173000910509F458C074C0ABE3B0E0EBE3F0E00E
:101740008081482F8A81282F30E08FE090E0022EA0
:1017500002C0880F991F0A94E2F7809584238C9326
:10176000ABE3B0E0EBE3F0E090818C81892B8C93CC
:101770005AC0A8E3B0E0E8E3F0E08081482F8A8116
:10178000282F30E08FE090E0022E02C0880F991FD2
:101790000A94E2F7809584238C93A8E3B0E0E8E311
:1017A000F0E090818C81892B8C933DC0A5E3B0E063
:1017B000E5E3F0E08081482F8A81282F30E08FE038
:1017C00090E0022E02C0880F991F0A94E2F78095DC
:1017D00084238C93A5E3B0E0E5E3F0E090818C8175
:1017E000892B8C9320C0A2E3B0E0E2E3F0E080819B
:1017F000482F8A81282F30E08FE090E0022E02C02F
:10180000880F991F0A94E2F7809584238C93A2E3B2
:10181000B0E0E2E3F0E090818C81892B8C9303C0EF
:10182000198201C01982898126960FB6F894DEBF0D
:101830000FBECDBFCF91DF910895DF93CF93CDB78A
:10184000DEB7A7E2B0E0E7E2F0E0808180648C934D
:10185000A7E2B0E0E7E2F0E080818F778C93A6E228
:10186000B0E0E6E2F0E08081887F8C93A6E2B0E011
:10187000E6E2F0E0808187608C93A7E2B0E0E7E2E7
:10188000F0E080818F7D8C93A6E2B0E0E6E2F0E0AC
:10189000808180688C93CF91DF910895DF93CF93FF
:1018A000CDB7DEB7A6E2B0E0E6E2F0E08081886086
:1018B0008C93CF91DF910895DF93CF930F92CDB7A3
:1018C000DEB78983898187708983A7E2B0E0E7E288
:1018D000F0E08081807E8C93A7E2B0E0E7E2F0E068
:1018E00090818981892B8C93A6E2B0E0E6E2F0E05A
:1018F000808180648C93E6E2F0E0808182958F7035
:10190000882F90E0817090700097A9F3E4E2F0E0F6
:10191000808191810F90CF91DF910895DF93CF93D4
:101920000F92CDB7DEB78983898187708983A7E25B
:10193000B0E0E7E2F0E08081807E8C93A7E2B0E047
:10194000E7E2F0E090818981892B8C93A6E2B0E0F8
:10195000E6E2F0E0808180648C930F90CF91DF917C
:101960000895DF93CF93CDB7DEB7E4E2F0E0808156
:101970009181CF91DF910895DF93CF9300D0CDB7C0
:10198000DEB79A83898389819A81909358078093DF
:1019900057070F900F90CF91DF9108951F920F92EC
:1019A0000FB60F9211242F933F934F935F936F9332
:1019B0007F938F939F93AF93BF93EF93FF93DF93A7
:1019C000CF93CDB7DEB7E0915707F091580709954F
:1019D000CF91DF91FF91EF91BF91AF919F918F9147
:1019E0007F916F915F914F913F912F910F900FBE1B
:1019F0000F901F901895DF93CF93CDB7DEB784E09B
:101A000061E040E00E94350885E061E040E00E942E
:101A1000350886E061E040E00E94350887E061E03B
:101A200040E00E94350882E063E041E00E94350812
:101A300083E063E041E00E94350884E063E041E038
:101A40000E94350885E063E041E00E94350884E0AB
:101A500061E041E00E94880985E061E041E00E9488
:101A6000880986E061E041E00E94880987E061E042
:101A700041E00E94880982E063E041E00E94880919
:101A800083E063E041E00E94880984E063E041E094
:101A90000E94880985E063E041E00E948809CF91B7
:101AA000DF910895DF93CF93CDB7DEB762970FB67E
:101AB000F894DEBF0FBECDBF1F8682E0888BB9C011
:101AC000888963E040E00E94880984E0898BA5C092
:101AD0009E012E5E3F4F898961E0A9010E94D30AD1
:101AE0008A89882309F096C08889882F90E0AC0104
:101AF000425050408989882F90E09C01245030400A
:101B0000CA01880F991F880F991F820F931FFC012C
:101B1000E853FE4F80818F8708C09E012E5E3F4FA5
:101B2000898961E0A9010E94D30A8A898823A9F3DF
:101B300080E090E0A0E2B1E48B879C87AD87BE8710
:101B40006B857C858D859E8520E030E04AEF54E4EE
:101B50000E941F02DC01CB018F839887A987BA8777
:101B60006F81788589859A8520E030E040E85FE3E1
:101B70000E94250488232CF481E090E09E838D83CD
:101B80003FC06F81788589859A8520E03FEF4FE7D8
:101B900057E40E94C50318164CF56B857C858D852E
:101BA0009E8520E030E040E251E40E941F02DC010B
:101BB000CB01BC01CD010E944900DC01CB019E8319
:101BC0008D830FC088EC90E09C838B838B819C81FC
:101BD0000197F1F79C838B838D819E8101979E8372
:101BE0008D838D819E81009769F714C06F81788500
:101BF00089859A850E944900DC01CB019E838D83F3
:101C00008D819E819A83898389819A810197F1F7D9
:101C10009A83898389898F5F898B8989883008F4C1
:101C200057CF888963E041E00E94880988898F5FE7
:101C3000888B8889863008F443CF8F8562960FB6EB
:101C4000F894DEBF0FBECDBFCF91DF910895DF9333
:101C5000CF93CDB7DEB76D970FB6F894DEBF0FBE4A
:101C6000CDBF8D8F81E060E040E00E94880980E078
:101C700060E040E00E94880980E06D8D0E948B0A40
:101C800082E060E041E00E94880980E090E0A0E00E
:101C9000B0E4898F9A8FAB8FBC8F698D7A8D8B8DD5
:101CA0009C8D20E030E04AEF54E40E941F02DC01EA
:101CB000CB018D8B9E8BAF8BB88F6D897E898F8981
:101CC000988D20E030E040E85FE30E9425048823FF
:101CD0002CF481E090E09C8B8B8B3FC06D897E89DA
:101CE0008F89988D20E03FEF4FE757E40E94C503AE
:101CF00018164CF5698D7A8D8B8D9C8D20E030E027
:101D000040E251E40E941F02DC01CB01BC01CD0185
:101D10000E944900DC01CB019C8B8B8B0FC088ECAF
:101D200090E09A8B898B89899A890197F1F79A8B30
:101D3000898B8B899C8901979C8B8B8B8B899C8948
:101D4000009769F714C06D897E898F89988D0E94EC
:101D50004900DC01CB019C8B8B8B8B899C89988BF8
:101D60008F878F8598890197F1F7988B8F8782E00D
:101D700060E040E00E94880980E090E0A0E0B0E4EC
:101D80008B879C87AD87BE876B857C858D859E857F
:101D900020E030E04AEF54E40E941F02DC01CB0156
:101DA0008F839887A987BA876F81788589859A8577
:101DB00020E030E040E85FE30E94250488232CF413
:101DC00081E090E09E838D833FC06F817885898517
:101DD0009A8520E03FEF4FE757E40E94C5031816AD
:101DE0004CF56B857C858D859E8520E030E040E25A
:101DF00051E40E941F02DC01CB01BC01CD010E9415
:101E00004900DC01CB019E838D830FC088EC90E0FC
:101E10009C838B838B819C810197F1F79C838B83BF
:101E20008D819E8101979E838D838D819E810097F8
:101E300069F714C06F81788589859A850E94490069
:101E4000DC01CB019E838D838D819E819A83898362
:101E500089819A810197F1F79A83898382E060E012
:101E600041E00E9488096D960FB6F894DEBF0FBE60
:101E7000CDBFCF91DF910895DF93CF93CDB7DEB77C
:101E8000E8970FB6F894DEBF0FBECDBF80E06FEFCE
:101E90000E94380981E060E041E00E94350880E05E
:101EA00060E041E00E94350882E060E041E00E948D
:101EB000350880E090E0A0EFB1E48DAB9EABAFAB16
:101EC000B8AF6DA97EA98FA998AD20E030E04AEFA8
:101ED00054E40E941F02DC01CB0189AB9AABABAB8F
:101EE000BCAB69A97AA98BA99CA920E030E040E8A5
:101EF0005FE30E94250488232CF481E090E098ABF6
:101F00008FA73FC069A97AA98BA99CA920E03FEFC0
:101F10004FE757E40E94C50318164CF56DA97EA93A
:101F20008FA998AD20E030E040E251E40E941F020A
:101F3000DC01CB01BC01CD010E944900DC01CB01D9
:101F400098AB8FA70FC088EC90E09EA78DA78DA5BA
:101F50009EA50197F1F79EA78DA78FA598A9019738
:101F600098AB8FA78FA598A9009769F714C069A9A6
:101F70007AA98BA99CA90E944900DC01CB0198ABEE
:101F80008FA78FA598A99CA78BA78BA59CA5019728
:101F9000F1F79CA78BA788E20E94270E80E090E0D3
:101FA000A0E8BFE38FA398A7A9A7BAA76FA178A5B8
:101FB00089A59AA520E030E04AEF54E40E941F0270
:101FC000DC01CB018BA39CA3ADA3BEA36BA17CA121
:101FD0008DA19EA120E030E040E85FE30E9425044F
:101FE00088232CF481E090E09AA389A33FC06BA1E1
:101FF0007CA18DA19EA120E03FEF4FE757E40E9416
:10200000C50318164CF56FA178A589A59AA520E0FF
:1020100030E040E251E40E941F02DC01CB01BC0130
:10202000CD010E944900DC01CB019AA389A30FC016
:1020300088EC90E098A38F8F8F8D98A10197F1F78E
:1020400098A38F8F89A19AA101979AA389A389A1A7
:102050009AA1009769F714C06BA17CA18DA19EA1E4
:102060000E944900DC01CB019AA389A389A19AA10E
:102070009E8F8D8F8D8D9E8D0197F1F79E8F8D8F09
:102080008CE00E94270E80E090E0A0E8BFE3898FFB
:102090009A8FAB8FBC8F698D7A8D8B8D9C8D20E054
:1020A00030E04AEF54E40E941F02DC01CB018D8B2B
:1020B0009E8BAF8BB88F6D897E898F89988D20E03C
:1020C00030E040E85FE30E94250488232CF481E09F
:1020D00090E09C8B8B8B3FC06D897E898F89988D1A
:1020E00020E03FEF4FE757E40E94C50318164CF578
:1020F000698D7A8D8B8D9C8D20E030E040E251E43B
:102100000E941F02DC01CB01BC01CD010E944900ED
:10211000DC01CB019C8B8B8B0FC088EC90E09A8B01
:10212000898B89899A890197F1F79A8B898B8B8999
:102130009C8901979C8B8B8B8B899C89009769F775
:1021400014C06D897E898F89988D0E944900DC01B9
:10215000CB019C8B8B8B8B899C89988B8F878F85F0
:1021600098890197F1F7988B8F8781E00E94270E5D
:1021700080E090E0A0E0B0E48B879C87AD87BE87CD
:102180006B857C858D859E8520E030E04AEF54E4A8
:102190000E941F02DC01CB018F839887A987BA8731
:1021A0006F81788589859A8520E030E040E85FE39B
:1021B0000E94250488232CF481E090E09E838D8387
:1021C0003FC06F81788589859A8520E03FEF4FE792
:1021D00057E40E94C50318164CF56B857C858D85E8
:1021E0009E8520E030E040E251E40E941F02DC01C5
:1021F000CB01BC01CD010E944900DC01CB019E83D3
:102200008D830FC088EC90E09C838B838B819C81B5
:102210000197F1F79C838B838D819E8101979E832B
:102220008D838D819E81009769F714C06F817885B9
:1022300089859A850E944900DC01CB019E838D83AC
:102240008D819E819A83898389819A810197F1F793
:102250009A83898386E00E94270EE8960FB6F89449
:10226000DEBF0FBECDBFCF91DF910895DF93CF9337
:10227000CDB7DEB76D970FB6F894DEBF0FBECDBFFA
:102280008D8F81E060E041E00E94880980E060E09D
:1022900040E00E94880980E06D8D0E948B0A82E0F8
:1022A00060E041E00E94880980E090E0A0E0B0E4B6
:1022B000898F9A8FAB8FBC8F698D7A8D8B8D9C8D1A
:1022C00020E030E04AEF54E40E941F02DC01CB0121
:1022D0008D8B9E8BAF8BB88F6D897E898F89988D02
:1022E00020E030E040E85FE30E94250488232CF4DE
:1022F00081E090E09C8B8B8B3FC06D897E898F89BC
:10230000988D20E03FEF4FE757E40E94C503181671
:102310004CF5698D7A8D8B8D9C8D20E030E040E20C
:1023200051E40E941F02DC01CB01BC01CD010E94DF
:102330004900DC01CB019C8B8B8B0FC088EC90E0BB
:102340009A8B898B89899A890197F1F79A8B898B66
:102350008B899C8901979C8B8B8B8B899C8900979F
:1023600069F714C06D897E898F89988D0E94490014
:10237000DC01CB019C8B8B8B8B899C89988B8F8705
:102380008F8598890197F1F7988B8F8782E060E0BD
:1023900040E00E94880980E090E0A0E0B0E48B87F4
:1023A0009C87AD87BE876B857C858D859E8520E06B
:1023B00030E04AEF54E40E941F02DC01CB018F831E
:1023C0009887A987BA876F81788589859A8520E063
:1023D00030E040E85FE30E94250488232CF481E08C
:1023E00090E09E838D833FC06F81788589859A8533
:1023F00020E03FEF4FE757E40E94C50318164CF565
:102400006B857C858D859E8520E030E040E251E43F
:102410000E941F02DC01CB01BC01CD010E944900DA
:10242000DC01CB019E838D830FC088EC90E09C8300
:102430008B838B819C810197F1F79C838B838D81AA
:102440009E8101979E838D838D819E81009769F780
:1024500014C06F81788589859A850E944900DC01C6
:10246000CB019E838D838D819E819A83898389810F
:102470009A810197F1F79A83898382E060E041E0D5
:102480000E9488096D960FB6F894DEBF0FBECDBFCF
:10249000CF91DF910895DF93CF9300D00F92CDB706
:1024A000DEB79B838A8319820EC08981282F30E092
:1024B0008A819B81FC01E20FF31F80810E9436110B
:1024C00089818F5F89838981282F30E08A819B8170
:1024D000FC01E20FF31F8081882339F70F900F90E2
:1024E0000F90CF91DF9108950F931F93DF93CF93B8
:1024F000CDB7DEB760970FB6F894DEBF0FBECDBF85
:102500006D877E878F87988B1A828D859E85AF8594
:10251000B8890097A105B10509F44FC02DC08A8183
:10252000082F10E08D859E85AF85B8892AE030E0C0
:1025300040E050E0BC01CD010E94E730DC01CB015E
:10254000282FCE010396FC01E00FF11F20838D851B
:102550009E85AF85B8892AE030E040E050E0BC01BC
:10256000CD010E94E730DA01C9018D879E87AF87D0
:10257000B88B8A818F5F8A838D859E85AF85B88968
:102580000097A105B10559F68A818150898311C050
:102590008981282F332727FD3095CE010396FC0132
:1025A000E20FF31F8081805D0E9436118981815086
:1025B00089838981882364F703C080E30E943611F0
:1025C00060960FB6F894DEBF0FBECDBFCF91DF91FE
:1025D0001F910F910895DF93CF9300D0CDB7DEB751
:1025E00089836A838981813041F48A81803128F42A
:1025F0008A8180580E94270E0AC08981823039F46E
:102600008A81803120F48A8180540E94270E0F90A5
:102610000F90CF91DF910895DF93CF93CDB7DEB7C1
:1026200060970FB6F894DEBF0FBECDBF888B81E0F8
:1026300060E040E00E94880980E060E040E00E94A5
:10264000880988898F70880F880F880F8F8783E0AB
:1026500060E04F850E946B0B82E060E041E00E94E9
:10266000880980E090E0A0E0B0E48B879C87AD878C
:10267000BE876B857C858D859E8520E030E04AEFA6
:1026800054E40E941F02DC01CB018F839887A98745
:10269000BA876F81788589859A8520E030E040E8A7
:1026A0005FE30E94250488232CF481E090E09E8360
:1026B0008D833FC06F81788589859A8520E03FEFC3
:1026C0004FE757E40E94C50318164CF56B857C85CF
:1026D0008D859E8520E030E040E251E40E941F029B
:1026E000DC01CB01BC01CD010E944900DC01CB0122
:1026F0009E838D830FC088EC90E09C838B838B81BD
:102700009C810197F1F79C838B838D819E8101973A
:102710009E838D838D819E81009769F714C06F81A0
:10272000788589859A850E944900DC01CB019E83CA
:102730008D838D819E819A83898389819A81019776
:10274000F1F79A83898382E060E040E00E94880983
:1027500060960FB6F894DEBF0FBECDBFCF91DF916C
:102760000895DF93CF93CDB7DEB7E9970FB6F8940E
:10277000DEBF0FBECDBF86E089AF08C089AD60E087
:1027800041E00E94350889AD815089AF89AD833021
:10279000ACF781E060E041E00E94350882E060E053
:1027A00041E00E94350880E090E0A0EFB1E48DABFD
:1027B0009EABAFABB8AF6DA97EA98FA998AD20E055
:1027C00030E04AEF54E40E941F02DC01CB0189ABE8
:1027D0009AABABABBCAB69A97AA98BA99CA920E049
:1027E00030E040E85FE30E94250488232CF481E078
:1027F00090E098AB8FA73FC069A97AA98BA99CA943
:1028000020E03FEF4FE757E40E94C50318164CF550
:102810006DA97EA98FA998AD20E030E040E251E497
:102820000E941F02DC01CB01BC01CD010E944900C6
:10283000DC01CB0198AB8FA70FC088EC90E09EA77E
:102840008DA78DA59EA50197F1F79EA78DA78FA5B2
:1028500098A9019798AB8FA78FA598A9009769F7BA
:1028600014C069A97AA98BA99CA90E944900DC011E
:10287000CB0198AB8FA78FA598A99CA78BA78BA5F9
:102880009CA50197F1F79CA78BA782E00E940C13EF
:1028900082E00E940C1388E20E940C1380E090E01A
:1028A000A0E8BFE38FA398A7A9A7BAA76FA178A5AF
:1028B00089A59AA520E030E04AEF54E40E941F0267
:1028C000DC01CB018BA39CA3ADA3BEA36BA17CA118
:1028D0008DA19EA120E030E040E85FE30E94250446
:1028E00088232CF481E090E09AA389A33FC06BA1D8
:1028F0007CA18DA19EA120E03FEF4FE757E40E940D
:10290000C50318164CF56FA178A589A59AA520E0F6
:1029100030E040E251E40E941F02DC01CB01BC0127
:10292000CD010E944900DC01CB019AA389A30FC00D
:1029300088EC90E098A38F8F8F8D98A10197F1F785
:1029400098A38F8F89A19AA101979AA389A389A19E
:102950009AA1009769F714C06BA17CA18DA19EA1DB
:102960000E944900DC01CB019AA389A389A19AA105
:102970009E8F8D8F8D8D9E8D0197F1F79E8F8D8F00
:1029800080E00E940C138CE00E940C1380E090E029
:10299000A0E8BFE3898F9A8FAB8FBC8F698D7A8D4A
:1029A0008B8D9C8D20E030E04AEF54E40E941F02A2
:1029B000DC01CB018D8B9E8BAF8BB88F6D897E89AF
:1029C0008F89988D20E030E040E85FE30E94250485
:1029D00088232CF481E090E09C8B8B8B3FC06D8929
:1029E0007E898F89988D20E03FEF4FE757E40E9462
:1029F000C50318164CF5698D7A8D8B8D9C8D20E062
:102A000030E040E251E40E941F02DC01CB01BC0136
:102A1000CD010E944900DC01CB019C8B8B8B0FC048
:102A200088EC90E09A8B898B89899A890197F1F7D4
:102A30009A8B898B8B899C8901979C8B8B8B8B893B
:102A40009C89009769F714C06D897E898F89988D5C
:102A50000E944900DC01CB019C8B8B8B8B899C896C
:102A6000988B8F878F8598890197F1F7988B8F873F
:102A700080E00E940C1381E00E940C1380E090E043
:102A8000A0E0B0E48B879C87AD87BE876B857C8593
:102A90008D859E8520E030E04AEF54E40E941F02BD
:102AA000DC01CB018F839887A987BA876F817885EE
:102AB00089859A8520E030E040E85FE30E942504A4
:102AC00088232CF481E090E09E838D833FC06F814A
:102AD000788589859A8520E03FEF4FE757E40E948B
:102AE000C50318164CF56B857C858D859E8520E089
:102AF00030E040E251E40E941F02DC01CB01BC0146
:102B0000CD010E944900DC01CB019E838D830FC063
:102B100088EC90E09C838B838B819C810197F1F7FB
:102B20009C838B838D819E8101979E838D838D8174
:102B30009E81009769F714C06F81788589859A8591
:102B40000E944900DC01CB019E838D838D819E8193
:102B50009A83898389819A810197F1F79A8389837E
:102B600080E00E940C1386E00E940C13E9960FB6D9
:102B7000F894DEBF0FBECDBFCF91DF910895DF93F4
:102B8000CF93CDB7DEB760970FB6F894DEBF0FBE18
:102B9000CDBF888B81E060E041E00E948809888990
:102BA0008F70880F880F880F8F8783E060E04F85D4
:102BB0000E946B0B82E060E041E00E94880980E0A7
:102BC00090E0A0E0B0E48B879C87AD87BE876B85E3
:102BD0007C858D859E8520E030E04AEF54E40E949C
:102BE0001F02DC01CB018F839887A987BA876F8189
:102BF000788589859A8520E030E040E85FE30E948F
:102C0000250488232CF481E090E09E838D833FC0CF
:102C10006F81788589859A8520E03FEF4FE757E4FB
:102C20000E94C50318164CF56B857C858D859E85A5
:102C300020E030E040E251E40E941F02DC01CB01C1
:102C4000BC01CD010E944900DC01CB019E838D8334
:102C50000FC088EC90E09C838B838B819C810197D3
:102C6000F1F79C838B838D819E8101979E838D8359
:102C70008D819E81009769F714C06F817885898561
:102C80009A850E944900DC01CB019E838D838D8152
:102C90009E819A83898389819A810197F1F79A832A
:102CA000898382E060E040E00E94880960960FB668
:102CB000F894DEBF0FBECDBFCF91DF910895DF93B3
:102CC000CF930F92CDB7DEB78983898182958F70BC
:102CD0000E94BF1589810E94BF150F90CF91DF918F
:102CE0000895DF93CF9300D00F92CDB7DEB79B83CB
:102CF0008A8319820EC08981282F30E08A819B81C6
:102D0000FC01E20FF31F80810E945F1689818F5FB3
:102D100089838981282F30E08A819B81FC01E20F21
:102D2000F31F8081882339F70F900F900F90CF9178
:102D3000DF9108950F931F93DF93CF93CDB7DEB745
:102D400060970FB6F894DEBF0FBECDBF6D877E874C
:102D50008F87988B1A828D859E85AF85B88900975D
:102D6000A105B10509F44FC02DC08A81082F10E0DC
:102D70008D859E85AF85B8892AE030E040E050E03F
:102D8000BC01CD010E94E730DC01CB01282FCE0130
:102D90000396FC01E00FF11F20838D859E85AF8592
:102DA000B8892AE030E040E050E0BC01CD010E944B
:102DB000E730DA01C9018D879E87AF87B88B8A819A
:102DC0008F5F8A838D859E85AF85B8890097A10521
:102DD000B10559F68A818150898311C08981282FD4
:102DE000332727FD3095CE010396FC01E20FF31F38
:102DF0008081805D0E945F168981815089838981ED
:102E0000882364F703C080E30E94361160960FB6F2
:102E1000F894DEBF0FBECDBFCF91DF911F910F9110
:102E20000895DF93CF9300D0CDB7DEB789836A834F
:102E300089818130B9F48A818031A0F48A81882F18
:102E400090E080589F4F9595879595958795959596
:102E50008795959587950E940C138A8180580E94CA
:102E60000C1319C089818230B1F48A81803198F4C1
:102E70008A81882F90E080549F4F959587959595EE
:102E8000879595958795959587950E940C138A81CE
:102E900080540E940C130F900F90CF91DF910895F2
:102EA000DF93CF93CDB7DEB727970FB6F894DEBF89
:102EB0000FBECDBF9D838C836E834F838AE190E0EC
:102EC0000E94281A9A83898389819A81009709F43C
:102ED0006FC08091D8019091D901009741F4898108
:102EE0009A819093D9018093D8010E94B7198E815D
:102EF000823010F081E08E83E981FA81118E108E8C
:102F0000E981FA818E81868BE981FA818F81878BB5
:102F1000E981FA818C819D819183808389819A8165
:102F200002960E94BE1A89819A810C960E94BE1A4E
:102F3000E981FA8189819A8191878087E981FA8183
:102F400089819A81938B828B8E81282F30E087E054
:102F500090E0821B930BE981FA8195878487E98150
:102F6000FA8196898091DA01891728F4E981FA813A
:102F700086898093DA01E981FA818689282F30E0F9
:102F8000C901880F991F880F991F880F991F820FF9
:102F9000931FAC014F515E4F89819A819C012E5F36
:102FA0003F4FCA01B9010E94CE1A81E08B8302C053
:102FB0008FEF8B838B8127960FB6F894DEBF0FBE01
:102FC000CDBFCF91DF910895DF93CF9300D000D094
:102FD00000D0CDB7DEB79C838B837E836D83209139
:102FE000DB013091DC018B819C81820F931F9A83DE
:102FF00089838091D8019091D90102960E94861B05
:10300000E091D801F091D90189819A8193838283DB
:103010002091DB013091DC0189819A81821793072D
:1030200070F480910702909108022091D8013091AC
:10303000D9012E5F3F4FB9010E941A1B0DC080912C
:103040000502909106022091D8013091D9012E5F9E
:103050003F4FB9010E941A1B8D819E81009761F03C
:103060008091D8019091D9019C01245F3F4F8D81BF
:103070009E81B9010E941A1B26960FB6F894DEBFF6
:103080000FBECDBFCF91DF910895DF93CF9300D0D6
:10309000CDB7DEB73AC0F894E0910E02F0910F027E
:1030A000868197819A83898389819A810C960E946F
:1030B000861B789489819A8102960E94861BE981F9
:1030C000FA8196898091DA01891728F4E981FA81D9
:1030D00086898093DA01E981FA818689282F30E098
:1030E000C901880F991F880F991F880F991F820F98
:1030F000931FAC014F515E4F89819A819C012E5FD5
:103100003F4FCA01B9010E94CE1A8091090288235B
:1031100009F0C1CF0F900F90CF91DF910895DF9309
:10312000CF9300D000D0CDB7DEB70E940827209102
:10313000DD013091DE01821B930B9093E0018093BF
:10314000DF0185C08091DB019091DC0101969093B5
:10315000DC018093DB018091DF019091E001019718
:103160009093E0018093DF018091DB019091DC017D
:10317000009709F064C080910502909106029A833D
:1031800089838091070290910802909306028093B0
:10319000050289819A8190930802809307024FC0AB
:1031A000E0910502F09106020580F681E02D86810E
:1031B00097819C838B83EB81FC8122813381809179
:1031C000DB019091DC018217930708F440C0F8946A
:1031D0008B819C8102960E94861BEB81FC818489F5
:1031E0009589009729F08B819C810C960E94861B03
:1031F0007894EB81FC8196898091DA01891728F413
:10320000EB81FC8186898093DA01EB81FC818689E0
:10321000282F30E0C901880F991F880F991F880F48
:10322000991F820F931FAC014F515E4F8B819C8180
:103230009C012E5F3F4FCA01B9010E94CE1AE09156
:103240000502F09106028081882309F0A9CF8091C0
:10325000DF019091E001009709F074CF8091DB01CC
:103260009091DC019093DE018093DD010F900F902F
:103270000F900F90CF91DF910895DF93CF9300D0FF
:10328000CDB7DEB70E9445180E948F180AC0809102
:10329000DA01882309F466C08091DA0181508093B5
:1032A000DA018091DA01282F30E0C901880F991FD7
:1032B000880F991F880F991F820F931FFC01EF51F0
:1032C000FE4F8081882319F38091DA01282F30E0A6
:1032D000C901880F991F880F991F880F991F820FA6
:1032E000931F8F519E4F9A838983E981FA810180D0
:1032F000F281E02D82819381E981FA819283818339
:10330000E981FA812181328189819A810396281786
:10331000390759F4E981FA810180F281E02D828137
:103320009381E981FA8192838183E981FA81018025
:10333000F281E02D868197819093D9018093D80105
:10334000E091D801F091D901408151818091D8015B
:103350009091D901E091D801F091D9012789622F8C
:10336000FA0109950F900F90CF91DF910895DF93A7
:10337000CF930F92CDB7DEB7198213C08981282F62
:1033800030E0C901880F991F880F991F880F991F76
:10339000820F931F8F519E4F0E94941A89818F5FD5
:1033A00089838981823050F383EF91E00E94941ADF
:1033B0008CEF91E00E94941A89E092E00E94941AA6
:1033C00083EF91E090930602809305028CEF91E0E9
:1033D00090930802809307020F90CF91DF91089598
:1033E000DF93CF9300D000D00F92CDB7DEB79D838F
:1033F0008C83EC81FD810580F681E02D86819781AB
:103400009B838A838A819B810C960E94861B8A817A
:103410009B819C01245F3F4F89E092E0B9010E94AB
:10342000CE1AEA81FB819689E091D801F091D90109
:103430008689981718F081E0898301C019828981F3
:103440000F900F900F900F900F90CF91DF910895F4
:10345000DF93CF9300D000D0CDB7DEB79C838B83B2
:103460001A8219820E947226809112029091130290
:103470002B813C81820F931F24E0803B920718F53B
:1034800020911202309113028B819C81280F391FE9
:10349000809112029091130282179307A0F48091F9
:1034A0001202909113028C5E9D4F9A838983209122
:1034B0001202309113028B819C81820F931F909393
:1034C0001302809312020E947E2689819A810F90B6
:1034D0000F900F900F90CF91DF910895DF93CF93CE
:1034E00000D0CDB7DEB79A8389830F900F90CF912C
:1034F000DF910895DF93CF93CDB7DEB7109213021B
:1035000010921202CF91DF910895DF93CF93CDB740
:10351000DEB7209112023091130280EB94E0821BFF
:10352000930BCF91DF910895DF93CF9300D0CDB768
:10353000DEB79A83898389819A810396E981FA812A
:1035400092838183E981FA818FEF9FEF9483838354
:1035500089819A810396E981FA819683858389819D
:103560009A810396E981FA8190878783E981FA81BC
:1035700010820F900F90CF91DF910895DF93CF933A
:1035800000D0CDB7DEB79A838983E981FA811186AD
:1035900010860F900F90CF91DF910895DF93CF9316
:1035A00000D000D000D0CDB7DEB79C838B837E8364
:1035B0006D83EB81FC81818192819A838983E9818A
:1035C000FA8182819381ED81FE8193838283EB81F5
:1035D000FC8181819281ED81FE8195838483E981E3
:1035E000FA810280F381E02D8D819E819583848311
:1035F0008D819E81E981FA81938382838D819E8171
:10360000EB81FC8192838183ED81FE818B819C81A2
:1036100091878087EB81FC8180818F5FEB81FC81CA
:10362000808326960FB6F894DEBF0FBECDBFCF9134
:10363000DF910895DF93CF93CDB7DEB728970FB60C
:10364000F894DEBF0FBECDBF9E838D8378876F83D6
:10365000EF81F885808191819A83898389819A811C
:103660002FEF8F3F920739F4ED81FE81878190859E
:103670009C838B8318C08D819E8103969C838B8352
:1036800006C0EB81FC81828193819C838B83EB81DB
:10369000FC810280F381E02D2081318189819A8132
:1036A0008217930770F7EB81FC8182819381EF8110
:1036B000F88593838283EF81F8850280F381E02D82
:1036C0008F81988595838483EF81F8858B819C8198
:1036D000958384838F819885EB81FC81938382839A
:1036E000EF81F8858D819E8191878087ED81FE81B4
:1036F00080818F5FED81FE81808328960FB6F894DC
:10370000DEBF0FBECDBFCF91DF910895DF93CF9382
:1037100000D000D0CDB7DEB79C838B83EB81FC81DA
:10372000A281B381EB81FC818481958115969C9364
:103730008E931497EB81FC81A481B581EB81FC8190
:103740008281938113969C938E931297EB81FC81D7
:10375000808591859A838983E981FA8121813281EB
:103760008B819C812817390741F4EB81FC8184818E
:103770009581E981FA8192838183EB81FC811186B5
:103780001086E981FA8180818150E981FA81808304
:103790000F900F900F900F90CF91DF910895DF93CE
:1037A000CF93CDB7DEB728970FB6F894DEBF0FBE24
:1037B000CDBF9C838B837E836D8358874F83EB8142
:1037C000FC8181E180838B819C8101979C838B8329
:1037D000EB81FC8182E280838B819C8101979C83B9
:1037E0008B83EB81FC8183E380838B819C810197B8
:1037F0009C838B838D819E819A8389838981EB81D0
:10380000FC8180838B819C8101979C838B83898140
:103810009A81892F99279A8389838981EB81FC81F9
:1038200080838B819C8101979C838B83EB81FC81BE
:1038300010828B819C8101979C838B83EB81FC811F
:1038400080E880838B819C8101979C838B83EB81B3
:10385000FC8110828B819C8101979C838B83EB81FF
:10386000FC8182E080838B819C8101979C838B8388
:10387000EB81FC8183E080838B819C8101979C8319
:103880008B83EB81FC8184E080838B819C81019719
:103890009C838B83EB81FC8185E080838B819C8181
:1038A00001979C838B83EB81FC8186E080838B81F5
:1038B0009C8101979C838B83EB81FC8187E08083D3
:1038C0008B819C8101979C838B83EB81FC8188E0B9
:1038D00080838B819C8101979C838B83EB81FC810E
:1038E00089E080838B819C8101979C838B83EB8112
:1038F000FC8180E180838B819C8101979C838B83F9
:10390000EB81FC8181E180838B819C8101979C8389
:103910008B83EB81FC8182E180838B819C81019789
:103920009C838B83EB81FC8183E180838B819C81F1
:1039300001979C838B83EB81FC8184E180838B8165
:103940009C8101979C838B83EB81FC8185E1808343
:103950008B819C8101979C838B83EB81FC8186E129
:1039600080838B819C8101979C838B83EB81FC817D
:1039700087E180838B819C8101979C838B83EB8182
:10398000FC8188E180838B819C8101979C838B8360
:10399000EB81FC8189E180838B819C8101979C83F1
:1039A0008B83EB81FC8180E280838B819C810197FA
:1039B0009C838B83EB81FC8181E280838B819C8162
:1039C00001979C838B83EB81FC8182E280838B81D6
:1039D0009C8101979C838B83EB81FC8183E28083B4
:1039E0008B819C8101979C838B838F8198859A839F
:1039F00089838981EB81FC8180838B819C81019704
:103A00009C838B8389819A81892F99279A838983C3
:103A10008981EB81FC8180838B819C8101979C83D0
:103A20008B83EB81FC8186E280838B819C81019773
:103A30009C838B83EB81FC8187E280838B819C81DB
:103A400001979C838B83EB81FC8188E280838B814F
:103A50009C8101979C838B83EB81FC8189E280832D
:103A60008B819C8101979C838B83EB81FC8180E31C
:103A700080838B819C8101979C838B83EB81FC816C
:103A800081E380838B819C8101979C838B838B81D5
:103A90009C8128960FB6F894DEBF0FBECDBFCF91A4
:103AA000DF910895DF93CF93CDB7DEB70E94421E1A
:103AB000A091C406B091C506CD91CDBFDD91DEBF0A
:103AC000FF91EF91DF91CF91BF91AF919F918F9136
:103AD0007F916F915F914F913F912F911F910F9126
:103AE000FF90EF90DF90CF90BF90AF909F908F901E
:103AF0007F906F905F904F903F902F901F900F900E
:103B00000FBE0F90089581E0CF91DF910895DF936C
:103B1000CF93CDB7DEB7CF91DF9108950F920FB657
:103B2000F8940F921F9211242F923F924F925F921E
:103B30006F927F928F929F92AF92BF92CF92DF92BD
:103B4000EF92FF920F931F932F933F934F935F93A7
:103B50006F937F938F939F93AF93BF93CF93DF9395
:103B6000EF93FF93A091C406B091C5060DB60D92D8
:103B70000EB60D920E941228A091C406B091C506FF
:103B8000CD91CDBFDD91DEBFFF91EF91DF91CF9160
:103B9000BF91AF919F918F917F916F915F914F9165
:103BA0003F912F911F910F91FF90EF90DF90CF9059
:103BB000BF90AF909F908F907F906F905F904F904D
:103BC0003F902F901F900F900FBE0F9008950F926F
:103BD0000FB6F8940F921F9211242F923F924F929A
:103BE0005F926F927F928F929F92AF92BF92CF928D
:103BF000DF92EF92FF920F931F932F933F934F9378
:103C00005F936F937F938F939F93AF93BF93CF9364
:103C1000DF93EF93FF93A091C406B091C5060DB654
:103C20000D920EB60D920E943D270E941228A0917F
:103C3000C406B091C506CD91CDBFDD91DEBFFF9129
:103C4000EF91DF91CF91BF91AF919F918F917F9134
:103C50006F915F914F913F912F911F910F91FF9025
:103C6000EF90DF90CF90BF90AF909F908F907F901C
:103C70006F905F904F903F902F901F900F900FBECE
:103C80000F900895DF93CF9300D000D000D0CDB730
:103C9000DEB785E194E3A0E0B0E08B839C83AD8345
:103CA000BE838B819C81AD81BE81689415F8B695E9
:103CB000A795979587951694D1F78B839C83AD83B1
:103CC000BE838B819C81AD81BE810197A109B10921
:103CD0008B839C83AD83BE838B8189838B819C8105
:103CE000AD81BE81892F9A2FAB2FBB278B839C83FD
:103CF000AD83BE838B818A83EBE4F0E08A8180838D
:103D0000EAE4F0E0898180838BE08983EEE4F0E0EF
:103D100089818083E9E5F0E0808189838981806100
:103D20008983E9E5F0E08981808326960FB6F894CF
:103D3000DEBF0FBECDBFCF91DF9108950E94E71D7A
:103D40001895DF93CF93CDB7DEB728970FB6F894C9
:103D5000DEBF0FBECDBF8F8368871A8219828F8125
:103D6000882309F48CC08FE190E00E94281A9E837A
:103D70008D838D819E81009709F481C08F81282FCA
:103D800030E08885882F90E0AC01249FC001259FFA
:103D9000900D349F900D112401969C838B838B8111
:103DA0009C810E94281AED81FE8191838083ED81A0
:103DB000FE8180819181009709F45DC0ED81FE81D3
:103DC000408151818F81282F30E08885882F90E0B5
:103DD000BC01269FC001279F900D369F900D112496
:103DE000840F951FED81FE8193838283ED81FE8197
:103DF000128EED81FE8180819181ED81FE8195831E
:103E00008483ED81FE81408151818F81882F90E0F4
:103E10009C01215030408885882F90E0BC01269F6E
:103E2000C001279F900D369F900D1124840F951F80
:103E3000ED81FE8197838683ED81FE818F81838F63
:103E4000ED81FE818885848FED81FE818FEF858FE6
:103E5000ED81FE818FEF868F8D819E8108960E9475
:103E6000941A8D819E8141960E94941A8D819E8123
:103E70009A83898304C08D819E810E946E1A8981F4
:103E80009A8128960FB6F894DEBF0FBECDBFCF91B2
:103E9000DF910895DF93CF9300D0CDB7DEB78FE1E8
:103EA00090E00E94281A9A83898389819A810097D9
:103EB000A9F1E981FA8113821282E981FA811182E2
:103EC0001082E981FA8115821482E981FA811782D0
:103ED0001682E981FA81128EE981FA8181E0838F6D
:103EE000E981FA81148EE981FA818FEF858FE9816A
:103EF000FA818FEF868F89819A8108960E94941AA1
:103F000089819A8141960E94941A89819A8160E000
:103F100070E040E050E020E00E94302089819A81EA
:103F20000F900F90CF91DF9108950F931F93DF9320
:103F3000CF9300D00F92CDB7DEB79B838A83EA81FF
:103F4000FB81028113810E94252B08171907D9F4E0
:103F5000EA81FB81868197810197EA81FB819783C2
:103F60008683EA81FB8186819781009749F48A8163
:103F70009B8160E070E040E050E020E00E94302053
:103F800081E0898301C0198289810F900F900F9081
:103F9000CF91DF911F910F9108950F931F93DF939E
:103FA000CF9300D000D00F92CDB7DEB79B838A832A
:103FB0007D836C83EA81FB81028113810E94252B22
:103FC0000817190761F4EA81FB81868197810196C0
:103FD000EA81FB819783868381E0898317C08A8188
:103FE0009B812C813D8160E070E0A90120E00E946E
:103FF0001B2189838981813049F4EA81FB81868193
:1040000097810196EA81FB819783868389810F904E
:104010000F900F900F900F90CF91DF911F910F9104
:104020000895DF93CF9300D000D0CDB7DEB78B8358
:104030006C838B8160E00E94A11E9A8389838981B1
:104040009A81009721F0E981FA818C81828F8981A0
:104050009A810F900F900F900F90CF91DF9108955C
:10406000DF93CF93CDB7DEB72C970FB6F894DEBFB2
:104070000FBECDBF9E838D8378876F835A87498714
:104080002B8719820FB6F8940F92ED81FE81928DE5
:10409000ED81FE81838D9817D8F48D819E812F81CB
:1040A0003885B9014B850E948822ED81FE81818986
:1040B000882349F08D819E8141960E94AE288130EF
:1040C00011F40E948E1D0F900FBE81E08C875CC0A2
:1040D00089859A85009721F40F900FBE1C8654C0E5
:1040E0008981882331F4CE0102960E94162981E04D
:1040F00089830F900FBE0E9472260FB6F8940F921C
:10410000ED81FE81858D8F3F19F4ED81FE81158E45
:10411000ED81FE81868D8F3F19F4ED81FE81168E33
:104120000F900FBECE0102969E01275F3F4FB9014F
:104130000E942F29882309F58D819E810E94FD23ED
:104140008823A1F08D819E81089629853A85B90141
:104150000E9478288D819E810E9476230E947E266F
:10416000882309F08FCF0E948E1D8CCF8D819E8178
:104170000E9476230E947E2685CF8D819E810E949B
:1041800076230E947E261C868C852C960FB6F8948A
:10419000DEBF0FBECDBFCF91DF910895DF93CF93E8
:1041A000CDB7DEB729970FB6F894DEBF0FBECDBFEF
:1041B0009C838B837E836D8358874F8329871982E5
:1041C000EB81FC81928DEB81FC81838D981740F50A
:1041D0008B819C812D813E81B90149850E94882275
:1041E000EB81FC81868D8F3F89F4EB81FC81818995
:1041F000882399F08B819C8141960E94AE28882368
:1042000061F0EF81F88581E0808307C0EB81FC815C
:10421000868D8F5FEB81FC81868F81E08A8301C070
:104220001A828A8129960FB6F894DEBF0FBECDBFE1
:10423000CF91DF910895DF93CF93CDB7DEB72E975F
:104240000FB6F894DEBF0FBECDBF98878F837A87F5
:1042500069875C874B872D871B820FB6F8940F9276
:10426000EF81F885828D882309F44BC0EF81F885B2
:10427000868197819A8389838F81988529853A855C
:10428000B9010E942E238D85882311F5EF81F885D1
:10429000828D8150EF81F885828FEF81F885808152
:1042A0009181009731F40E94252BEF81F88593834B
:1042B0008283EF81F88580858823F1F08F8198854E
:1042C00008960E94AE288130B9F40E948E1D14C059
:1042D000EF81F88589819A8197838683EF81F885BC
:1042E0008189882349F08F81988541960E94AE2864
:1042F000882311F00E948E1D0F900FBE81E08E87E3
:104300006DC08B859C85009721F40F900FBE1E8693
:1043100065C08B81882331F4CE0104960E94162952
:1043200081E08B830F900FBE0E9472260FB6F89427
:104330000F92EF81F885858D8F3F19F4EF81F88515
:10434000158EEF81F885868D8F3F19F4EF81F88502
:10435000168E0F900FBECE0104969E01255F3F4F33
:10436000B9010E942F29882391F58F8198850E9499
:10437000CA23882329F1EF81F885808191810097F4
:1043800059F40FB6F8940F92EF81F88582819381EA
:104390000E94372B0F900FBE8F81988541962B85F9
:1043A0003C85B9010E9478288F8198850E947623E8
:1043B0000E947E26882309F050CF0E948E1D4DCF8B
:1043C0008F8198850E9476230E947E2646CF8F811A
:1043D00098850E9476230E947E261E868E852E96C4
:1043E0000FB6F894DEBF0FBECDBFCF91DF91089519
:1043F000DF93CF93CDB7DEB728970FB6F894DEBF23
:104400000FBECDBF9C838B837E836D8358874F8384
:104410001982EB81FC81828D882371F18B819C81D3
:104420002D813E81B9010E942E23EB81FC81828D7A
:104430008150EB81FC81828FEB81FC81858D8F3FE8
:1044400089F4EB81FC818085882399F08B819C81A4
:1044500008960E94AE28882361F0EF81F88581E0FC
:10446000808307C0EB81FC81858D8F5FEB81FC81B0
:10447000858F81E08A8301C01A828A8128960FB6CF
:10448000F894DEBF0FBECDBFCF91DF910895DF93CB
:10449000CF9300D00F92CDB7DEB79B838A830FB640
:1044A000F8940F92EA81FB81828D89830F900FBE71
:1044B00089810F900F900F90CF91DF910895DF9336
:1044C000CF9300D00F92CDB7DEB79B838A83EA816A
:1044D000FB81828D898389810F900F900F90CF91FE
:1044E000DF910895DF93CF9300D0CDB7DEB79A83E5
:1044F0008983E981FA81808191810E946E1A898184
:104500009A810E946E1A0F900F90CF91DF910895BB
:10451000DF93CF9300D000D00F92CDB7DEB79A8350
:1045200089837C836B834D83E981FA81848D882321
:1045300091F4E981FA8180819181009709F07FC02F
:10454000E981FA81828193810E94B72BE981FA8106
:104550001382128274C08D81882399F5E981FA81D2
:1045600064817581E981FA81848D482F50E02B8127
:104570003C81CB01B9010E944031E981FA8124815B
:104580003581E981FA81848D882F90E0820F931F15
:10459000E981FA8195838483E981FA8124813581D7
:1045A000E981FA81828193812817390708F447C08D
:1045B000E981FA8180819181E981FA8195838483FF
:1045C0003EC0E981FA8166817781E981FA81848D33
:1045D000482F50E02B813C81CB01B9010E94403132
:1045E000E981FA8126813781E981FA81848D882FDA
:1045F00090E0909581959F4F820F931FE981FA81FA
:1046000097838683E981FA8126813781E981FA815E
:10461000808191812817390790F4E981FA812281FC
:104620003381E981FA81848D882F90E0909581957E
:104630009F4F820F931FE981FA8197838683E981D7
:10464000FA81828D8F5FE981FA81828F0F900F90BE
:104650000F900F900F90CF91DF910895DF93CF933C
:1046600000D000D0CDB7DEB79A8389837C836B837B
:10467000E981FA8180819181009789F1E981FA814C
:1046800026813781E981FA81848D882F90E0820F1D
:10469000931FE981FA8197838683E981FA812681D4
:1046A0003781E981FA81828193812817390740F0A7
:1046B000E981FA8180819181E981FA8197838683FA
:1046C000E981FA8146815781E981FA81848D282F19
:1046D00030E08B819C81BA01A9010E9440310F908A
:1046E0000F900F900F90CF91DF910895DF93CF93AC
:1046F00000D0CDB7DEB79A8389830FB6F8940F92B6
:1047000015C0E981FA8181898823A9F089819A817C
:1047100041960E94AE28882311F00E948C29E981DD
:10472000FA81868D8150E981FA81868FE981FA814B
:10473000868D181634F3E981FA818FEF868F0F90FA
:104740000FBE0FB6F8940F9215C0E981FA818085EB
:104750008823A9F089819A8108960E94AE2888232F
:1047600011F00E948C29E981FA81858D8150E981BF
:10477000FA81858FE981FA81858D181634F3E981F4
:10478000FA818FEF858F0F900FBE0F900F90CF9112
:10479000DF910895DF93CF9300D00F92CDB7DEB7AE
:1047A0009B838A830FB6F8940F92EA81FB81828DF6
:1047B0001982882311F481E089830F900FBE8981CB
:1047C0000F900F900F90CF91DF910895DF93CF93CB
:1047D00000D00F92CDB7DEB79B838A83EA81FB813D
:1047E000828D1982882311F481E0898389810F9059
:1047F0000F900F90CF91DF910895DF93CF9300D06A
:104800000F92CDB7DEB79B838A830FB6F8940F92D1
:10481000EA81FB81928DEA81FB81838D1982981751
:1048200011F481E089830F900FBE89810F900F9062
:104830000F90CF91DF910895DF93CF9300D00F9227
:10484000CDB7DEB79B838A83EA81FB81928DEA81B3
:10485000FB81838D1982981711F481E08983898106
:104860000F900F900F90CF91DF910895AF92BF926C
:10487000CF92DF92EF92FF920F931F93DF93CF932C
:10488000CDB7DEB764970FB6F894DEBF0FBECDBFCD
:104890009F838E83798768875B874A873D872C87CC
:1048A0000E87F88AEF86DA8AC98ABC8AAB8A8A853B
:1048B0009B8529893A89B9010E94BF2A9C838B83F1
:1048C0008B819C81009709F499C0EB81FC81278939
:1048D000308D8A859B850197820F931F9A838983E8
:1048E0008B819C8128853985EB89FC89AA85BB85CC
:1048F000B9014E859F018D010E94A02989819A816D
:104900002E813F814C855D85B9010E94CF1BEB81D3
:10491000FC81918380838F859889009731F0EF85A2
:10492000F8898B819C81918380830FB6F8940F92D4
:104930008091C7068F5F8093C7068091C4069091CF
:10494000C506009769F48B819C819093C50680937E
:10495000C4068091C7068130A9F40E94FB2912C0C9
:104960008091CC06882371F4E091C406F091C506CD
:1049700096898E85891730F08B819C819093C5062E
:104980008093C406EB81FC8196898091CA068917C1
:1049900028F4EB81FC8186898093CA068091D10638
:1049A0008F5F8093D106EB81FC8196898091CB0645
:1049B000891728F4EB81FC8186898093CB06EB81F3
:1049C000FC818689282F30E0C901880F991F880F44
:1049D000991F880F991F820F931FAC014E52594F98
:1049E0008B819C819C012E5F3F4FCA01B9010E94BF
:1049F000CE1A81E08D830F900FBE02C08FEF8D83A2
:104A00008D81813071F48091CC06882351F0E09142
:104A1000C406F091C50696898E85981710F40E94F9
:104A20008E1D8D8164960FB6F894DEBF0FBECDBF8C
:104A3000CF91DF911F910F91FF90EF90DF90CF907A
:104A4000BF90AF900895DF93CF9300D000D000D0F7
:104A5000CDB7DEB79C838B830FB6F8940F9220916D
:104A6000C4063091C5068B819C818217930711F48F
:104A70001C821B828B819C81009739F48091C40633
:104A80009091C5069E838D8304C08B819C819E83FB
:104A90008D838D819E819A83898389819A810296F3
:104AA0000E94861BE981FA8184899589009729F003
:104AB00089819A810C960E94861B89819A819C012A
:104AC0002E5F3F4F80E397E0B9010E94CE1A80919C
:104AD000C6068F5F8093C6068091D1068F5F809354
:104AE000D1060F900FBE8091CC06882331F08B81C8
:104AF0009C81009711F40E948E1D26960FB6F894A3
:104B0000DEBF0FBECDBFCF91DF910895DF93CF936E
:104B1000CDB7DEB728970FB6F894DEBF0FBECDBF76
:104B20009E838D8378876F8319820E947226ED8120
:104B3000FE81208131818F819885820F931F9C8314
:104B40008B83ED81FE81208131818091C806909117
:104B5000C90682179307A8F4ED81FE812081318177
:104B60008B819C818217930700F52091C8063091B4
:104B7000C9068B819C8128173907B8F481E08983A5
:104B800014C0ED81FE81208131818B819C8182174F
:104B9000930748F02091C8063091C9068B819C810B
:104BA0002817390710F481E08983ED81FE818B811C
:104BB0009C81918380838981882359F08091C406E8
:104BC0009091C50602960E94861B8B819C810E9453
:104BD000762A0E947E268A838A81882311F40E9485
:104BE0008E1D28960FB6F894DEBF0FBECDBFCF91B5
:104BF000DF910895DF93CF9300D000D00F92CDB70F
:104C0000DEB79D838C8319828C819D810097D1F0C2
:104C10000E9472262091C8063091C9068C819D8120
:104C2000820F931F9B838A838091C4069091C5064F
:104C300002960E94861B8A819B810E94762A0E948E
:104C40007E2689838981882311F40E948E1D0F900E
:104C50000F900F900F900F90CF91DF910895AF922A
:104C6000BF92CF92DF92EF92FF920F93DF93CF9399
:104C70000F92CDB7DEB720E630E086E999E2B901C0
:104C800044E650E020E030E000E0EE24FF24CC24B5
:104C9000DD24AA24BB240E943624898389818130A3
:104CA00051F4F89481E08093CC061092C9061092DA
:104CB000C8060E94521D0F90CF91DF910F91FF9077
:104CC000EF90DF90CF90BF90AF900895DF93CF9398
:104CD000CDB7DEB7F8941092CC060E94871DCF9115
:104CE000DF910895DF93CF93CDB7DEB78091CD06E6
:104CF0008F5F8093CD06CF91DF910895DF93CF939F
:104D000000D000D0CDB7DEB71A820FB6F8940F925C
:104D10008091CD0681508093CD068091CD06882369
:104D200009F06CC08091C706882309F467C0198216
:104D300041C0E0912C07F0912D07868197819C83DB
:104D40008B838B819C810C960E94861B8B819C811E
:104D500002960E94861BEB81FC8196898091CB068E
:104D6000891728F4EB81FC8186898093CB06EB813F
:104D7000FC818689282F30E0C901880F991F880F90
:104D8000991F880F991F820F931F8E52994F2B8165
:104D90003C812E5F3F4FB9010E94CE1AEB81FC810E
:104DA0009689E091C406F091C5068689981710F09F
:104DB00081E0898380912707882309F0BACF809109
:104DC000CE06882371F007C00E943D278091CE0651
:104DD00081508093CE068091CE068823A9F781E08A
:104DE00089838981813021F08091CF06813031F42F
:104DF00081E08A831092CF060E948E1D0F900FBE15
:104E00008A810F900F900F900F90CF91DF910895AE
:104E1000DF93CF9300D0CDB7DEB70FB6F8940F92E3
:104E20008091C8069091C9069A8389830F900FBE1E
:104E300089819A810F900F90CF91DF910895DF9330
:104E4000CF9300D00F92CDB7DEB719828091C806FC
:104E50009091C9069B838A838A819B810F900F90D2
:104E60000F90CF91DF910895DF93CF93CDB7DEB749
:104E70008091C706CF91DF910895DF93CF9300D043
:104E800000D000D0CDB7DEB78091CD06882309F0E1
:104E9000BBC08091C8069091C90601969093C9063F
:104EA0008093C8068091C8069091C9060097D1F5F5
:104EB00080912307909124079C838B838091250701
:104EC0009091260790932407809323078B819C81E0
:104ED00090932607809325078091D0068F5F80935B
:104EE000D006E0912307F09124078081882339F4CC
:104EF0008FEF9FEF9093C3018093C20113C0E091A5
:104F00002307F09124070580F681E02D86819781A3
:104F10009E838D83ED81FE81828193819093C30175
:104F20008093C2012091C8063091C9068091C201C8
:104F30009091C3012817390708F46BC0E09123074B
:104F4000F09124078081882339F48FEF9FEF9093AD
:104F5000C3018093C2015DC0E0912307F091240753
:104F60000580F681E02D868197819E838D83ED817A
:104F7000FE81828193819A8389832091C806309132
:104F8000C90689819A812817390738F489819A815D
:104F90009093C3018093C2013CC08D819E81029693
:104FA0000E94861BED81FE8184899589009729F0F6
:104FB0008D819E810C960E94861BED81FE819689D3
:104FC0008091CB06891728F4ED81FE818689809334
:104FD000CB06ED81FE818689282F30E0C901880F3C
:104FE000991F880F991F880F991F820F931FAC017B
:104FF0004E52594F8D819E819C012E5F3F4FCA01B9
:10500000B9010E94CE1A9ACF8091CE068F5F80930D
:10501000CE0626960FB6F894DEBF0FBECDBFCF9159
:10502000DF910895DF93CF9300D0CDB7DEB78091A5
:10503000CD06882349F081E08093CF0654C080914B
:10504000CB0681508093CB068091CB06282F30E091
:10505000C901880F991F880F991F880F991F820F08
:10506000931FFC01EE52F94F8081882341F3809118
:10507000CB06282F30E0C901880F991F880F991F90
:10508000880F991F820F931F8E52994F9A8389839D
:10509000E981FA810180F281E02D82819381E981A9
:1050A000FA8192838183E981FA8121813281898128
:1050B0009A8103962817390759F4E981FA8101800A
:1050C000F281E02D82819381E981FA81928381834B
:1050D000E981FA810180F281E02D868197819093A8
:1050E000C5068093C4060F900F90CF91DF9108956D
:1050F000DF93CF9300D000D000D0CDB7DEB79C8334
:105100008B837E836D834B815C818091C4069091FB
:10511000C5069C01245F3F4FCA01B9010E941A1BBA
:105120008091C4069091C50602960E94861B20912C
:10513000C8063091C9068D819E81820F931F9A8384
:10514000898389819A810E94762A26960FB6F894DF
:10515000DEBF0FBECDBFCF91DF910895DF93CF9318
:1051600000D000D00F92CDB7DEB79D838C83EC8149
:10517000FD810580F681E02D868197819B838A835E
:105180008A819B810C960E94861B8091CD06882384
:1051900061F58A819B8102960E94861BEA81FB81D0
:1051A00096898091CB06891728F4EA81FB8186894C
:1051B0008093CB06EA81FB818689282F30E0C901E4
:1051C000880F991F880F991F880F991F820F931FAF
:1051D000AC014E52594F8A819B819C012E5F3F4FFB
:1051E000CA01B9010E94CE1A0AC08A819B819C0122
:1051F000245F3F4F87E297E0B9010E94CE1AEA810F
:10520000FB819689E091C406F091C50686899817BE
:1052100018F081E0898301C0198289810F900F9075
:105220000F900F900F90CF91DF910895DF93CF9360
:1052300000D0CDB7DEB79A8389838091D006E9810B
:10524000FA8180838091C8069091C906E981FA812C
:10525000928381830F900F90CF91DF910895DF9318
:10526000CF9300D000D00F92CDB7DEB79B838A8357
:105270007D836C830FB6F8940F92EA81FB81908155
:105280008091D006981771F0EA81FB8121813281EB
:105290008091C8069091C9068217930718F081E0A3
:1052A00089832FC02091C8063091C906EA81FB810D
:1052B00081819281281B390BEC81FD818081918154
:1052C00028173907E0F4EC81FD8140815181EA81A2
:1052D000FB81218132818091C8069091C906B90174
:1052E000681B790BCB01840F951FEC81FD819183A5
:1052F00080838A819B810E941629198202C081E0E5
:1053000089830F900FBE89810F900F900F900F909F
:105310000F90CF91DF910895DF93CF93CDB7DEB794
:1053200081E08093CF06CF91DF910895DF93CF93F3
:1053300000D0CDB7DEB79A8389830E94382AFDCF8B
:105340000F931F93DF93CF93CDB7DEB729970FB697
:10535000F894DEBF0FBECDBF9A8389837C836B83B5
:105360004D833F832E831987088789819A814996C7
:105370002B813C81B90148E050E00E945031E98125
:10538000FA8110A28D81873010F086E08D83E9814B
:10539000FA818D81868BE981FA818D8181A3898152
:1053A0009A8102960E94BE1A89819A810C960E9467
:1053B000BE1AE981FA8189819A81918780878D81DE
:1053C000282F30E087E090E0821B930BE981FA817F
:1053D00095878487E981FA8189819A81938B828B71
:1053E00029960FB6F894DEBF0FBECDBFCF91DF91E7
:1053F0001F910F910895DF93CF930F92CDB7DEB732
:10540000198213C08981282F30E0C901880F991FA4
:10541000880F991F880F991F820F931F8E52994FE3
:105420000E94941A89818F5F89838981873050F324
:1054300081E197E00E94941A8AE197E00E94941A11
:1054400087E297E00E94941A80E397E00E94941A02
:1054500081E197E090932407809323078AE197E006
:1054600090932607809325070F90CF91DF910895A1
:10547000DF93CF9300D00F92CDB7DEB78091C606F1
:10548000882371F10E947226809130071B82882345
:1054900011F481E08B830E947E268B81882301F5A5
:1054A0000FB6F8940F92E0913507F0913607868198
:1054B00097819A83898389819A8102960E94861BAB
:1054C0008091C70681508093C7068091C60681509F
:1054D0008093C6060F900FBE89819A810E940F2B80
:1054E0000F900F900F90CF91DF910895DF93CF939E
:1054F00000D0CDB7DEB79A838983E091C406F091DE
:10550000C50689819A81938382832091C806309150
:10551000C90689819A818217930770F480912507C3
:10552000909126072091C4063091C5062E5F3F4F0B
:10553000B9010E941A1B1EC04091230750912407F5
:105540008091C4069091C5069C012E5F3F4FCA0111
:10555000B9010E941A1B2091C2013091C3018981B7
:105560009A818217930730F489819A819093C301BD
:105570008093C2010F900F90CF91DF910895DF9338
:10558000CF93CDB7DEB728970FB6F894DEBF0FBE26
:10559000CDBF9C838B837E836D8382E290E00E94EB
:1055A000281A9A83898389819A81009769F18D816C
:1055B0009E81009739F48B819C810E94281A9887DC
:1055C0008F8304C08D819E8198878F83E981FA81C2
:1055D0008F819885908F878BE981FA818789908D5B
:1055E000009739F489819A810E946E1A1A82198271
:1055F0000BC0E981FA818789908D2B813C8165EA16
:1056000070E0A9010E94493189819A8128960FB6DC
:10561000F894DEBF0FBECDBFCF91DF910895DF9329
:10562000CF9300D0CDB7DEB79A838983E981FA8121
:105630008789908D0E946E1A89819A810E946E1AC4
:105640000F900F90CF91DF910895DF93CF9300D00B
:10565000CDB7DEB78091C4069091C5069A83898341
:1056600089819A810F900F90CF91DF910895DF93F8
:10567000CF9300D000D0CDB7DEB79C838B838B81D6
:105680009C819A838983E981FA819689E091C40695
:10569000F091C5068689981708F062C0E091C406AB
:1056A000F091C5068689282F30E087E090E0821BC4
:1056B000930BE981FA8195878487E981FA81428594
:1056C0005385E981FA818689282F30E0C901880F46
:1056D000991F880F991F880F991F820F931F8E5251
:1056E000994F48175907A1F589819A8102960E941E
:1056F000861BE091C406F091C5068689E981FA818E
:10570000868BE981FA8196898091CB06891728F4E6
:10571000E981FA8186898093CB06E981FA818689BD
:10572000282F30E0C901880F991F880F991F880F13
:10573000991F820F931FAC014E52594F89819A8154
:105740009C012E5F3F4FCA01B9010E94CE1A08C0CA
:10575000E091C406F091C5068689E981FA81868BBD
:105760000F900F900F900F90CF91DF910895DF93DE
:10577000CF9300D000D0CDB7DEB79C838B838B81D5
:105780009C819A8389838B819C81009709F447C00F
:10579000E981FA819689E981FA8181A1981709F452
:1057A0003EC089819A8102960E94861BE981FA8116
:1057B00081A1E981FA81868BE981FA818689282F86
:1057C00030E087E090E0821B930BE981FA819587B6
:1057D0008487E981FA8196898091CB06891728F41C
:1057E000E981FA8186898093CB06E981FA818689ED
:1057F000282F30E0C901880F991F880F991F880F43
:10580000991F820F931FAC014E52594F89819A8183
:105810009C012E5F3F4FCA01B9010E94CE1A0F9022
:105820000F900F900F90CF91DF910895AF92BF929C
:10583000CF92DF92EF92FF920F93DF93CF93CDB78A
:10584000DEB780E062E041E00E94350881E062E07E
:1058500041E00E94350882E062E041E00E943508A4
:1058600085E062E041E00E94350880E063E041E0CD
:105870000E94350886E063E041E00E94350887E039
:1058800063E041E00E94350880E061E041E00E9471
:10589000350881E061E041E00E94350881EC9CE23E
:1058A00060E070E044E650E020E030E002E0EE240A
:1058B000FF24CC24DD24AA24BB240E9436248DE3BB
:1058C0009DE260E070E044E650E020E030E002E07D
:1058D000EE24FF24CC24DD24AA24BB240E943624F9
:1058E0008DE79DE260E070E04CE251E020E030E0C6
:1058F00003E0EE24FF24CC24DD24AA24BB240E9450
:10590000362482E59FE260E070E044E650E020E06B
:1059100030E002E0EE24FF24CC24DD24AA24BB24C2
:105920000E9436248DE89FE260E070E044E650E09B
:1059300020E030E002E0EE24FF24CC24DD24AA2481
:10594000BB240E9436248AE390E360E070E044E6E2
:1059500050E020E030E002E0EE24FF24CC24DD24FF
:10596000AA24BB240E9436240E94B1130E94FB0C7F
:105970000E941D0C809149070E948E0C0E942F26C8
:10598000FFCFDF93CF9300D000D0CDB7DEB79C839D
:105990008B8380915107882309F06AC080914B075F
:1059A000882309F065C01A828FE289830E94520D14
:1059B000898389818F3209F45BC089818033D0F07B
:1059C00089818A33B8F480915307882F90E0FC01D5
:1059D000E45BF84F89818083809153078F5F8093C8
:1059E000530780E062E041E00E94880981E08093F3
:1059F0004B073CC089818332C9F510924A07109247
:105A0000530719C080915307882F90E0FC01E45B95
:105A1000F84F208180915307882F90E0FC01EB53D1
:105A2000FE4F8081281711F081E08A83809153070F
:105A30008F5F8093530780915307823018F3109241
:105A400053078A81882349F482E08093C40110922D
:105A5000520781E08093510709C08A81882331F081
:105A60001A821092520782E0809351078FE2898355
:105A70008AE090E00E94FA258CCFDF93CF9300D08C
:105A8000CDB7DEB79A83898380915107813081F544
:105A90008091C701813061F580E062E041E00E94C1
:105AA000880980E061E041E00E94880988E592E091
:105AB0000E94FA2580E061E040E00E9488098CE2C3
:105AC00091E00E94FA2580E062E041E00E948809AE
:105AD00088E592E00E94FA2581E061E040E00E94C2
